{
  "contractName": "lottery",
  "abi": [
    {
      "inputs": [],
      "stateMutability": "nonpayable",
      "type": "constructor"
    },
    {
      "anonymous": false,
      "inputs": [
        {
          "indexed": true,
          "internalType": "address",
          "name": "poolOwner",
          "type": "address"
        },
        {
          "indexed": false,
          "internalType": "uint256",
          "name": "poolId",
          "type": "uint256"
        },
        {
          "indexed": false,
          "internalType": "string",
          "name": "poolName",
          "type": "string"
        },
        {
          "indexed": false,
          "internalType": "uint256",
          "name": "joiningFee",
          "type": "uint256"
        }
      ],
      "name": "LogLotteryPoolCreated",
      "type": "event"
    },
    {
      "anonymous": false,
      "inputs": [
        {
          "indexed": false,
          "internalType": "uint256",
          "name": "poolId",
          "type": "uint256"
        },
        {
          "indexed": false,
          "internalType": "string",
          "name": "poolName",
          "type": "string"
        },
        {
          "indexed": false,
          "internalType": "uint256",
          "name": "joiningFee",
          "type": "uint256"
        },
        {
          "indexed": false,
          "internalType": "uint256",
          "name": "poolAmount",
          "type": "uint256"
        },
        {
          "indexed": false,
          "internalType": "uint256",
          "name": "availableSlots",
          "type": "uint256"
        },
        {
          "indexed": false,
          "internalType": "address[]",
          "name": "members",
          "type": "address[]"
        }
      ],
      "name": "LogLotteryPoolJoined",
      "type": "event"
    },
    {
      "anonymous": false,
      "inputs": [
        {
          "indexed": false,
          "internalType": "uint256",
          "name": "poolId",
          "type": "uint256"
        },
        {
          "indexed": false,
          "internalType": "string",
          "name": "poolName",
          "type": "string"
        },
        {
          "indexed": false,
          "internalType": "uint256",
          "name": "joiningFee",
          "type": "uint256"
        },
        {
          "indexed": false,
          "internalType": "uint256",
          "name": "poolAmount",
          "type": "uint256"
        },
        {
          "indexed": false,
          "internalType": "address[]",
          "name": "members",
          "type": "address[]"
        },
        {
          "indexed": true,
          "internalType": "address",
          "name": "winner",
          "type": "address"
        }
      ],
      "name": "LogLotteryPoolWinned",
      "type": "event"
    },
    {
      "inputs": [
        {
          "internalType": "uint256",
          "name": "",
          "type": "uint256"
        }
      ],
      "name": "createdPools",
      "outputs": [
        {
          "internalType": "uint256",
          "name": "",
          "type": "uint256"
        }
      ],
      "stateMutability": "view",
      "type": "function"
    },
    {
      "inputs": [
        {
          "internalType": "address",
          "name": "",
          "type": "address"
        },
        {
          "internalType": "uint256",
          "name": "",
          "type": "uint256"
        }
      ],
      "name": "lotteryPoolMembers",
      "outputs": [
        {
          "internalType": "bool",
          "name": "isJoined",
          "type": "bool"
        }
      ],
      "stateMutability": "view",
      "type": "function"
    },
    {
      "inputs": [
        {
          "internalType": "uint256",
          "name": "",
          "type": "uint256"
        }
      ],
      "name": "lotteryPools",
      "outputs": [
        {
          "internalType": "string",
          "name": "poolName",
          "type": "string"
        },
        {
          "internalType": "uint256",
          "name": "poolId",
          "type": "uint256"
        },
        {
          "internalType": "uint256",
          "name": "availableSlots",
          "type": "uint256"
        },
        {
          "internalType": "uint256",
          "name": "joiningFee",
          "type": "uint256"
        },
        {
          "internalType": "uint256",
          "name": "poolAmount",
          "type": "uint256"
        },
        {
          "internalType": "address",
          "name": "poolOwner",
          "type": "address"
        },
        {
          "internalType": "address",
          "name": "winner",
          "type": "address"
        },
        {
          "internalType": "bool",
          "name": "isActive",
          "type": "bool"
        },
        {
          "internalType": "bool",
          "name": "isExists",
          "type": "bool"
        }
      ],
      "stateMutability": "view",
      "type": "function"
    },
    {
      "inputs": [],
      "name": "owner",
      "outputs": [
        {
          "internalType": "address payable",
          "name": "",
          "type": "address"
        }
      ],
      "stateMutability": "view",
      "type": "function"
    },
    {
      "inputs": [
        {
          "internalType": "string",
          "name": "_poolName",
          "type": "string"
        },
        {
          "internalType": "uint256",
          "name": "_availableSlots",
          "type": "uint256"
        },
        {
          "internalType": "uint256",
          "name": "_joiningFee",
          "type": "uint256"
        }
      ],
      "name": "createLotteryPool",
      "outputs": [],
      "stateMutability": "payable",
      "type": "function"
    },
    {
      "inputs": [
        {
          "internalType": "string",
          "name": "_poolName",
          "type": "string"
        },
        {
          "internalType": "uint256",
          "name": "_availableSlots",
          "type": "uint256"
        },
        {
          "internalType": "uint256",
          "name": "_joiningFee",
          "type": "uint256"
        }
      ],
      "name": "createMiniLotteryPool",
      "outputs": [],
      "stateMutability": "payable",
      "type": "function"
    },
    {
      "inputs": [
        {
          "internalType": "uint256",
          "name": "_poolId",
          "type": "uint256"
        }
      ],
      "name": "joinMiniLotteryPool",
      "outputs": [],
      "stateMutability": "payable",
      "type": "function"
    },
    {
      "inputs": [
        {
          "internalType": "uint256",
          "name": "_poolId",
          "type": "uint256"
        }
      ],
      "name": "joinLotteryPool",
      "outputs": [],
      "stateMutability": "payable",
      "type": "function"
    },
    {
      "inputs": [
        {
          "internalType": "uint256",
          "name": "_poolId",
          "type": "uint256"
        }
      ],
      "name": "drawWinner",
      "outputs": [],
      "stateMutability": "payable",
      "type": "function"
    },
    {
      "inputs": [
        {
          "internalType": "uint256",
          "name": "_poolId",
          "type": "uint256"
        }
      ],
      "name": "getLotteryPoolById",
      "outputs": [
        {
          "components": [
            {
              "internalType": "string",
              "name": "poolName",
              "type": "string"
            },
            {
              "internalType": "uint256",
              "name": "poolId",
              "type": "uint256"
            },
            {
              "internalType": "address[]",
              "name": "members",
              "type": "address[]"
            },
            {
              "internalType": "uint256",
              "name": "availableSlots",
              "type": "uint256"
            },
            {
              "internalType": "uint256",
              "name": "joiningFee",
              "type": "uint256"
            },
            {
              "internalType": "uint256",
              "name": "poolAmount",
              "type": "uint256"
            },
            {
              "internalType": "address",
              "name": "poolOwner",
              "type": "address"
            },
            {
              "internalType": "address",
              "name": "winner",
              "type": "address"
            },
            {
              "internalType": "bool",
              "name": "isActive",
              "type": "bool"
            },
            {
              "internalType": "bool",
              "name": "isExists",
              "type": "bool"
            }
          ],
          "internalType": "struct lottery.LotteryPool",
          "name": "",
          "type": "tuple"
        }
      ],
      "stateMutability": "view",
      "type": "function"
    },
    {
      "inputs": [
        {
          "internalType": "uint256",
          "name": "_poolId",
          "type": "uint256"
        }
      ],
      "name": "getLotteryPoolMemeberById",
      "outputs": [
        {
          "components": [
            {
              "internalType": "bool",
              "name": "isJoined",
              "type": "bool"
            },
            {
              "internalType": "uint256[]",
              "name": "joinedPools",
              "type": "uint256[]"
            },
            {
              "internalType": "uint256[]",
              "name": "winnedPools",
              "type": "uint256[]"
            }
          ],
          "internalType": "struct lottery.LotteryPoolMembers",
          "name": "",
          "type": "tuple"
        }
      ],
      "stateMutability": "view",
      "type": "function"
    },
    {
      "inputs": [],
      "name": "getAllcreatedPools",
      "outputs": [
        {
          "internalType": "uint256[]",
          "name": "",
          "type": "uint256[]"
        }
      ],
      "stateMutability": "view",
      "type": "function"
    }
  ],
  "bytecode": "0x608060405234801561001057600080fd5b50336000806101000a81548173ffffffffffffffffffffffffffffffffffffffff021916908373ffffffffffffffffffffffffffffffffffffffff1602179055506131bb806100606000396000f3fe6080604052600436106100a75760003560e01c80638e2b27e1116100645780638e2b27e1146101ad578063a8a07586146101ea578063c61cbd1314610206578063d1ff907b14610243578063d26273831461026e578063e1d1ddfd146102ab576100a7565b80634435b17c146100ac5780634445f30c146100c857806344ed3f58146101055780634f3f3c5f1461014a57806360b2a56a146101665780638da5cb5b14610182575b600080fd5b6100c660048036038101906100c19190611f3e565b6102c7565b005b3480156100d457600080fd5b506100ef60048036038101906100ea9190611f3e565b610745565b6040516100fc91906121ff565b60405180910390f35b34801561011157600080fd5b5061012c60048036038101906101279190611f3e565b61099d565b60405161014199989796959493929190612298565b60405180910390f35b610164600480360381019061015f9190611f3e565b610acd565b005b610180600480360381019061017b9190611f3e565b610f4b565b005b34801561018e57600080fd5b5061019761145c565b6040516101a4919061234d565b60405180910390f35b3480156101b957600080fd5b506101d460048036038101906101cf9190612394565b611480565b6040516101e191906123d4565b60405180910390f35b61020460048036038101906101ff9190612524565b6114b8565b005b34801561021257600080fd5b5061022d60048036038101906102289190611f3e565b611814565b60405161023a9190612699565b60405180910390f35b34801561024f57600080fd5b50610258611949565b604051610265919061272a565b60405180910390f35b34801561027a57600080fd5b5061029560048036038101906102909190611f3e565b6119a1565b6040516102a2919061274c565b60405180910390f35b6102c560048036038101906102c09190612524565b6119c5565b005b6002600082815260200190815260200160002060070160159054906101000a900460ff1661032a576040517f08c379a0000000000000000000000000000000000000000000000000000000008152600401610321906127d9565b60405180910390fd5b6002600082815260200190815260200160002060070160149054906101000a900460ff1661038d576040517f08c379a000000000000000000000000000000000000000000000000000000000815260040161038490612845565b60405180910390fd5b60006002600083815260200190815260200160002060030154116103e6576040517f08c379a00000000000000000000000000000000000000000000000000000000081526004016103dd906128b1565b60405180910390fd5b3460026000838152602001908152602001600020600401541461043e576040517f08c379a000000000000000000000000000000000000000000000000000000000815260040161043590612943565b60405180910390fd5b600360003373ffffffffffffffffffffffffffffffffffffffff1673ffffffffffffffffffffffffffffffffffffffff168152602001908152602001600020600082815260200190815260200160002060000160009054906101000a900460ff16156104df576040517f08c379a00000000000000000000000000000000000000000000000000000000081526004016104d6906129d5565b60405180910390fd5b60026000828152602001908152602001600020600201339080600181540180825580915050600190039060005260206000200160009091909190916101000a81548173ffffffffffffffffffffffffffffffffffffffff021916908373ffffffffffffffffffffffffffffffffffffffff1602179055503460026000838152602001908152602001600020600501600082825461057c9190612a24565b925050819055506002600082815260200190815260200160002060030160008154809291906105aa90612a7a565b91905055506001600360003373ffffffffffffffffffffffffffffffffffffffff1673ffffffffffffffffffffffffffffffffffffffff168152602001908152602001600020600083815260200190815260200160002060000160006101000a81548160ff021916908315150217905550600360003373ffffffffffffffffffffffffffffffffffffffff1673ffffffffffffffffffffffffffffffffffffffff16815260200190815260200160002060008281526020019081526020016000206001018190806001815401808255809150506001900390600052602060002001600090919091909150557ff86bdb19f19aa826e176e1d82140ff7093798030e1db52349c0fd748d16f369c81600260008481526020019081526020016000206000016002600085815260200190815260200160002060040154600260008681526020019081526020016000206005015460026000878152602001908152602001600020600301546002600088815260200190815260200160002060020160405161073a96959493929190612c97565b60405180910390a150565b61074d611d21565b600260008381526020019081526020016000206040518061014001604052908160008201805461077c90612ad3565b80601f01602080910402602001604051908101604052809291908181526020018280546107a890612ad3565b80156107f55780601f106107ca576101008083540402835291602001916107f5565b820191906000526020600020905b8154815290600101906020018083116107d857829003601f168201915b50505050508152602001600182015481526020016002820180548060200260200160405190810160405280929190818152602001828054801561088d57602002820191906000526020600020905b8160009054906101000a900473ffffffffffffffffffffffffffffffffffffffff1673ffffffffffffffffffffffffffffffffffffffff1681526020019060010190808311610843575b505050505081526020016003820154815260200160048201548152602001600582015481526020016006820160009054906101000a900473ffffffffffffffffffffffffffffffffffffffff1673ffffffffffffffffffffffffffffffffffffffff1673ffffffffffffffffffffffffffffffffffffffff1681526020016007820160009054906101000a900473ffffffffffffffffffffffffffffffffffffffff1673ffffffffffffffffffffffffffffffffffffffff1673ffffffffffffffffffffffffffffffffffffffff1681526020016007820160149054906101000a900460ff161515151581526020016007820160159054906101000a900460ff1615151515815250509050919050565b60026020528060005260406000206000915090508060000180546109c090612ad3565b80601f01602080910402602001604051908101604052809291908181526020018280546109ec90612ad3565b8015610a395780601f10610a0e57610100808354040283529160200191610a39565b820191906000526020600020905b815481529060010190602001808311610a1c57829003601f168201915b5050505050908060010154908060030154908060040154908060050154908060060160009054906101000a900473ffffffffffffffffffffffffffffffffffffffff16908060070160009054906101000a900473ffffffffffffffffffffffffffffffffffffffff16908060070160149054906101000a900460ff16908060070160159054906101000a900460ff16905089565b6002600082815260200190815260200160002060070160159054906101000a900460ff16610b30576040517f08c379a0000000000000000000000000000000000000000000000000000000008152600401610b27906127d9565b60405180910390fd5b6002600082815260200190815260200160002060070160149054906101000a900460ff16610b93576040517f08c379a0000000000000000000000000000000000000000000000000000000008152600401610b8a90612845565b60405180910390fd5b6000600260008381526020019081526020016000206003015411610bec576040517f08c379a0000000000000000000000000000000000000000000000000000000008152600401610be3906128b1565b60405180910390fd5b34600260008381526020019081526020016000206004015414610c44576040517f08c379a0000000000000000000000000000000000000000000000000000000008152600401610c3b90612943565b60405180910390fd5b600360003373ffffffffffffffffffffffffffffffffffffffff1673ffffffffffffffffffffffffffffffffffffffff168152602001908152602001600020600082815260200190815260200160002060000160009054906101000a900460ff1615610ce5576040517f08c379a0000000000000000000000000000000000000000000000000000000008152600401610cdc906129d5565b60405180910390fd5b60026000828152602001908152602001600020600201339080600181540180825580915050600190039060005260206000200160009091909190916101000a81548173ffffffffffffffffffffffffffffffffffffffff021916908373ffffffffffffffffffffffffffffffffffffffff16021790555034600260008381526020019081526020016000206005016000828254610d829190612a24565b92505081905550600260008281526020019081526020016000206003016000815480929190610db090612a7a565b91905055506001600360003373ffffffffffffffffffffffffffffffffffffffff1673ffffffffffffffffffffffffffffffffffffffff168152602001908152602001600020600083815260200190815260200160002060000160006101000a81548160ff021916908315150217905550600360003373ffffffffffffffffffffffffffffffffffffffff1673ffffffffffffffffffffffffffffffffffffffff16815260200190815260200160002060008281526020019081526020016000206001018190806001815401808255809150506001900390600052602060002001600090919091909150557ff86bdb19f19aa826e176e1d82140ff7093798030e1db52349c0fd748d16f369c816002600084815260200190815260200160002060000160026000858152602001908152602001600020600401546002600086815260200190815260200160002060050154600260008781526020019081526020016000206003015460026000888152602001908152602001600020600201604051610f4096959493929190612c97565b60405180910390a150565b60008054906101000a900473ffffffffffffffffffffffffffffffffffffffff1673ffffffffffffffffffffffffffffffffffffffff163373ffffffffffffffffffffffffffffffffffffffff1614610fd9576040517f08c379a0000000000000000000000000000000000000000000000000000000008152600401610fd090612d52565b60405180910390fd5b6002600082815260200190815260200160002060070160149054906101000a900460ff1661103c576040517f08c379a000000000000000000000000000000000000000000000000000000000815260040161103390612dbe565b60405180910390fd5b6000600260008381526020019081526020016000206003015414611095576040517f08c379a000000000000000000000000000000000000000000000000000000000815260040161108c90612e2a565b60405180910390fd5b60006064601460026000858152602001908152602001600020600501546110bc9190612e4a565b6110c69190612ed3565b905060006064605060026000868152602001908152602001600020600501546110ef9190612e4a565b6110f99190612ed3565b905060008054906101000a900473ffffffffffffffffffffffffffffffffffffffff1673ffffffffffffffffffffffffffffffffffffffff166108fc839081150290604051600060405180830381858888f19350505050158015611161573d6000803e3d6000fd5b5060004442600260008781526020019081526020016000206002018054905060405160200161119293929190612f25565b6040516020818303038152906040528051906020012060001c905060006002600086815260200190815260200160002060020180549050826111d49190612f62565b90506000600260008781526020019081526020016000206002018281548110611200576111ff612f93565b5b9060005260206000200160009054906101000a900473ffffffffffffffffffffffffffffffffffffffff1690508073ffffffffffffffffffffffffffffffffffffffff166108fc859081150290604051600060405180830381858888f19350505050158015611273573d6000803e3d6000fd5b50806002600088815260200190815260200160002060070160006101000a81548173ffffffffffffffffffffffffffffffffffffffff021916908373ffffffffffffffffffffffffffffffffffffffff160217905550600360008273ffffffffffffffffffffffffffffffffffffffff1673ffffffffffffffffffffffffffffffffffffffff168152602001908152602001600020600087815260200190815260200160002060020186908060018154018082558091505060019003906000526020600020016000909190919091505560006002600088815260200190815260200160002060070160146101000a81548160ff0219169083151502179055506002600087815260200190815260200160002060070160009054906101000a900473ffffffffffffffffffffffffffffffffffffffff1673ffffffffffffffffffffffffffffffffffffffff167f293c9f655bce43bd3c117702b69e833cf33ef35a999224abe5289ce386f9011987600260008a8152602001908152602001600020600001600260008b815260200190815260200160002060040154600260008c815260200190815260200160002060050154600260008d815260200190815260200160002060020160405161144c959493929190612fc2565b60405180910390a2505050505050565b60008054906101000a900473ffffffffffffffffffffffffffffffffffffffff1681565b6003602052816000526040600020602052806000526040600020600091509150508060000160009054906101000a900460ff16905081565b60008054906101000a900473ffffffffffffffffffffffffffffffffffffffff1673ffffffffffffffffffffffffffffffffffffffff163373ffffffffffffffffffffffffffffffffffffffff1614611546576040517f08c379a000000000000000000000000000000000000000000000000000000000815260040161153d90613095565b60405180910390fd5b60018211611589576040517f08c379a000000000000000000000000000000000000000000000000000000000815260040161158090613127565b60405180910390fd5b604051806101400160405280848152602001428152602001600067ffffffffffffffff8111156115bc576115bb6123f9565b5b6040519080825280602002602001820160405280156115ea5781602001602082028036833780820191505090505b508152602001838152602001828152602001600081526020013373ffffffffffffffffffffffffffffffffffffffff168152602001600073ffffffffffffffffffffffffffffffffffffffff1681526020016001151581526020016001151581525060026000428152602001908152602001600020600082015181600001908051906020019061167b929190611da4565b506020820151816001015560408201518160020190805190602001906116a2929190611e2a565b50606082015181600301556080820151816004015560a0820151816005015560c08201518160060160006101000a81548173ffffffffffffffffffffffffffffffffffffffff021916908373ffffffffffffffffffffffffffffffffffffffff16021790555060e08201518160070160006101000a81548173ffffffffffffffffffffffffffffffffffffffff021916908373ffffffffffffffffffffffffffffffffffffffff1602179055506101008201518160070160146101000a81548160ff0219169083151502179055506101208201518160070160156101000a81548160ff02191690831515021790555090505060014290806001815401808255809150506001900390600052602060002001600090919091909150553373ffffffffffffffffffffffffffffffffffffffff167ff5d10ae5eef0f0573ea0c20232af691435b31e9355592054eae767892f36f79142858460405161180793929190613147565b60405180910390a2505050565b61181c611eb4565b600360003373ffffffffffffffffffffffffffffffffffffffff1673ffffffffffffffffffffffffffffffffffffffff16815260200190815260200160002060008381526020019081526020016000206040518060600160405290816000820160009054906101000a900460ff16151515158152602001600182018054806020026020016040519081016040528092919081815260200182805480156118e157602002820191906000526020600020905b8154815260200190600101908083116118cd575b505050505081526020016002820180548060200260200160405190810160405280929190818152602001828054801561193957602002820191906000526020600020905b815481526020019060010190808311611925575b5050505050815250509050919050565b6060600180548060200260200160405190810160405280929190818152602001828054801561199757602002820191906000526020600020905b815481526020019060010190808311611983575b5050505050905090565b600181815481106119b157600080fd5b906000526020600020016000915090505481565b60008054906101000a900473ffffffffffffffffffffffffffffffffffffffff1673ffffffffffffffffffffffffffffffffffffffff163373ffffffffffffffffffffffffffffffffffffffff1614611a53576040517f08c379a0000000000000000000000000000000000000000000000000000000008152600401611a4a90613095565b60405180910390fd5b60018211611a96576040517f08c379a0000000000000000000000000000000000000000000000000000000008152600401611a8d90613127565b60405180910390fd5b604051806101400160405280848152602001428152602001600067ffffffffffffffff811115611ac957611ac86123f9565b5b604051908082528060200260200182016040528015611af75781602001602082028036833780820191505090505b508152602001838152602001828152602001600081526020013373ffffffffffffffffffffffffffffffffffffffff168152602001600073ffffffffffffffffffffffffffffffffffffffff16815260200160011515815260200160011515815250600260004281526020019081526020016000206000820151816000019080519060200190611b88929190611da4565b50602082015181600101556040820151816002019080519060200190611baf929190611e2a565b50606082015181600301556080820151816004015560a0820151816005015560c08201518160060160006101000a81548173ffffffffffffffffffffffffffffffffffffffff021916908373ffffffffffffffffffffffffffffffffffffffff16021790555060e08201518160070160006101000a81548173ffffffffffffffffffffffffffffffffffffffff021916908373ffffffffffffffffffffffffffffffffffffffff1602179055506101008201518160070160146101000a81548160ff0219169083151502179055506101208201518160070160156101000a81548160ff02191690831515021790555090505060014290806001815401808255809150506001900390600052602060002001600090919091909150553373ffffffffffffffffffffffffffffffffffffffff167ff5d10ae5eef0f0573ea0c20232af691435b31e9355592054eae767892f36f791428584604051611d1493929190613147565b60405180910390a2505050565b604051806101400160405280606081526020016000815260200160608152602001600081526020016000815260200160008152602001600073ffffffffffffffffffffffffffffffffffffffff168152602001600073ffffffffffffffffffffffffffffffffffffffff1681526020016000151581526020016000151581525090565b828054611db090612ad3565b90600052602060002090601f016020900481019282611dd25760008555611e19565b82601f10611deb57805160ff1916838001178555611e19565b82800160010185558215611e19579182015b82811115611e18578251825591602001919060010190611dfd565b5b509050611e269190611ed7565b5090565b828054828255906000526020600020908101928215611ea3579160200282015b82811115611ea25782518260006101000a81548173ffffffffffffffffffffffffffffffffffffffff021916908373ffffffffffffffffffffffffffffffffffffffff16021790555091602001919060010190611e4a565b5b509050611eb09190611ed7565b5090565b604051806060016040528060001515815260200160608152602001606081525090565b5b80821115611ef0576000816000905550600101611ed8565b5090565b6000604051905090565b600080fd5b600080fd5b6000819050919050565b611f1b81611f08565b8114611f2657600080fd5b50565b600081359050611f3881611f12565b92915050565b600060208284031215611f5457611f53611efe565b5b6000611f6284828501611f29565b91505092915050565b600081519050919050565b600082825260208201905092915050565b60005b83811015611fa5578082015181840152602081019050611f8a565b83811115611fb4576000848401525b50505050565b6000601f19601f8301169050919050565b6000611fd682611f6b565b611fe08185611f76565b9350611ff0818560208601611f87565b611ff981611fba565b840191505092915050565b61200d81611f08565b82525050565b600081519050919050565b600082825260208201905092915050565b6000819050602082019050919050565b600073ffffffffffffffffffffffffffffffffffffffff82169050919050565b600061206a8261203f565b9050919050565b61207a8161205f565b82525050565b600061208c8383612071565b60208301905092915050565b6000602082019050919050565b60006120b082612013565b6120ba818561201e565b93506120c58361202f565b8060005b838110156120f65781516120dd8882612080565b97506120e883612098565b9250506001810190506120c9565b5085935050505092915050565b60008115159050919050565b61211881612103565b82525050565b600061014083016000830151848203600086015261213c8282611fcb565b91505060208301516121516020860182612004565b506040830151848203604086015261216982826120a5565b915050606083015161217e6060860182612004565b5060808301516121916080860182612004565b5060a08301516121a460a0860182612004565b5060c08301516121b760c0860182612071565b5060e08301516121ca60e0860182612071565b506101008301516121df61010086018261210f565b506101208301516121f461012086018261210f565b508091505092915050565b60006020820190508181036000830152612219818461211e565b905092915050565b600082825260208201905092915050565b600061223d82611f6b565b6122478185612221565b9350612257818560208601611f87565b61226081611fba565b840191505092915050565b61227481611f08565b82525050565b6122838161205f565b82525050565b61229281612103565b82525050565b60006101208201905081810360008301526122b3818c612232565b90506122c2602083018b61226b565b6122cf604083018a61226b565b6122dc606083018961226b565b6122e9608083018861226b565b6122f660a083018761227a565b61230360c083018661227a565b61231060e0830185612289565b61231e610100830184612289565b9a9950505050505050505050565b60006123378261203f565b9050919050565b6123478161232c565b82525050565b6000602082019050612362600083018461233e565b92915050565b6123718161205f565b811461237c57600080fd5b50565b60008135905061238e81612368565b92915050565b600080604083850312156123ab576123aa611efe565b5b60006123b98582860161237f565b92505060206123ca85828601611f29565b9150509250929050565b60006020820190506123e96000830184612289565b92915050565b600080fd5b600080fd5b7f4e487b7100000000000000000000000000000000000000000000000000000000600052604160045260246000fd5b61243182611fba565b810181811067ffffffffffffffff821117156124505761244f6123f9565b5b80604052505050565b6000612463611ef4565b905061246f8282612428565b919050565b600067ffffffffffffffff82111561248f5761248e6123f9565b5b61249882611fba565b9050602081019050919050565b82818337600083830152505050565b60006124c76124c284612474565b612459565b9050828152602081018484840111156124e3576124e26123f4565b5b6124ee8482856124a5565b509392505050565b600082601f83011261250b5761250a6123ef565b5b813561251b8482602086016124b4565b91505092915050565b60008060006060848603121561253d5761253c611efe565b5b600084013567ffffffffffffffff81111561255b5761255a611f03565b5b612567868287016124f6565b935050602061257886828701611f29565b925050604061258986828701611f29565b9150509250925092565b600081519050919050565b600082825260208201905092915050565b6000819050602082019050919050565b60006125cb8383612004565b60208301905092915050565b6000602082019050919050565b60006125ef82612593565b6125f9818561259e565b9350612604836125af565b8060005b8381101561263557815161261c88826125bf565b9750612627836125d7565b925050600181019050612608565b5085935050505092915050565b600060608301600083015161265a600086018261210f565b506020830151848203602086015261267282826125e4565b9150506040830151848203604086015261268c82826125e4565b9150508091505092915050565b600060208201905081810360008301526126b38184612642565b905092915050565b600082825260208201905092915050565b60006126d782612593565b6126e181856126bb565b93506126ec836125af565b8060005b8381101561271d57815161270488826125bf565b975061270f836125d7565b9250506001810190506126f0565b5085935050505092915050565b6000602082019050818103600083015261274481846126cc565b905092915050565b6000602082019050612761600083018461226b565b92915050565b7f506f6f6c20646f65736e6f7420657869737473207769746820676976656e204960008201527f6400000000000000000000000000000000000000000000000000000000000000602082015250565b60006127c3602183612221565b91506127ce82612767565b604082019050919050565b600060208201905081810360008301526127f2816127b6565b9050919050565b7f506f6f6c206973206e6f74206163746976650000000000000000000000000000600082015250565b600061282f601283612221565b915061283a826127f9565b602082019050919050565b6000602082019050818103600083015261285e81612822565b9050919050565b7f506f6f6c2069732066756c6c0000000000000000000000000000000000000000600082015250565b600061289b600c83612221565b91506128a682612865565b602082019050919050565b600060208201905081810360008301526128ca8161288e565b9050919050565b7f616d6f756e74206d75737420626520657175616c20746f206a6f696e696e672060008201527f666565206f6620706f6f6c000000000000000000000000000000000000000000602082015250565b600061292d602b83612221565b9150612938826128d1565b604082019050919050565b6000602082019050818103600083015261295c81612920565b9050919050565b7f596f752061726520616c7265616479206a6f696e656420696e2074686973207060008201527f6f6f6c0000000000000000000000000000000000000000000000000000000000602082015250565b60006129bf602383612221565b91506129ca82612963565b604082019050919050565b600060208201905081810360008301526129ee816129b2565b9050919050565b7f4e487b7100000000000000000000000000000000000000000000000000000000600052601160045260246000fd5b6000612a2f82611f08565b9150612a3a83611f08565b9250827fffffffffffffffffffffffffffffffffffffffffffffffffffffffffffffffff03821115612a6f57612a6e6129f5565b5b828201905092915050565b6000612a8582611f08565b91506000821415612a9957612a986129f5565b5b600182039050919050565b7f4e487b7100000000000000000000000000000000000000000000000000000000600052602260045260246000fd5b60006002820490506001821680612aeb57607f821691505b60208210811415612aff57612afe612aa4565b5b50919050565b60008190508160005260206000209050919050565b60008154612b2781612ad3565b612b318186612221565b94506001821660008114612b4c5760018114612b5e57612b91565b60ff1983168652602086019350612b91565b612b6785612b05565b60005b83811015612b8957815481890152600182019150602081019050612b6a565b808801955050505b50505092915050565b600081549050919050565b600082825260208201905092915050565b60008190508160005260206000209050919050565b60008160001c9050919050565b600073ffffffffffffffffffffffffffffffffffffffff82169050919050565b6000612c0b612c0683612bcb565b612bd8565b9050919050565b6000612c1e8254612bf8565b9050919050565b6000600182019050919050565b6000612c3d82612b9a565b612c478185612ba5565b9350612c5283612bb6565b8060005b83811015612c8a57612c6782612c12565b612c718882612080565b9750612c7c83612c25565b925050600181019050612c56565b5085935050505092915050565b600060c082019050612cac600083018961226b565b8181036020830152612cbe8188612b1a565b9050612ccd604083018761226b565b612cda606083018661226b565b612ce7608083018561226b565b81810360a0830152612cf98184612c32565b9050979650505050505050565b7f4f6e6c7920706f6f6c206f776e65722063616e20647261772077696e6e657273600082015250565b6000612d3c602083612221565b9150612d4782612d06565b602082019050919050565b60006020820190508181036000830152612d6b81612d2f565b9050919050565b7f506f6f6c206973206e6f7420616374697665207769746820676976656e204964600082015250565b6000612da8602083612221565b9150612db382612d72565b602082019050919050565b60006020820190508181036000830152612dd781612d9b565b9050919050565b7f506f6f6c206973206e6f742066696c6c65642075700000000000000000000000600082015250565b6000612e14601583612221565b9150612e1f82612dde565b602082019050919050565b60006020820190508181036000830152612e4381612e07565b9050919050565b6000612e5582611f08565b9150612e6083611f08565b9250817fffffffffffffffffffffffffffffffffffffffffffffffffffffffffffffffff0483118215151615612e9957612e986129f5565b5b828202905092915050565b7f4e487b7100000000000000000000000000000000000000000000000000000000600052601260045260246000fd5b6000612ede82611f08565b9150612ee983611f08565b925082612ef957612ef8612ea4565b5b828204905092915050565b6000819050919050565b612f1f612f1a82611f08565b612f04565b82525050565b6000612f318286612f0e565b602082019150612f418285612f0e565b602082019150612f518284612f0e565b602082019150819050949350505050565b6000612f6d82611f08565b9150612f7883611f08565b925082612f8857612f87612ea4565b5b828206905092915050565b7f4e487b7100000000000000000000000000000000000000000000000000000000600052603260045260246000fd5b600060a082019050612fd7600083018861226b565b8181036020830152612fe98187612b1a565b9050612ff8604083018661226b565b613005606083018561226b565b81810360808301526130178184612c32565b90509695505050505050565b7f4f6e6c79206f776e65722063616e206372656174652061206e6577206c6f747460008201527f65727920706f6f6c000000000000000000000000000000000000000000000000602082015250565b600061307f602883612221565b915061308a82613023565b604082019050919050565b600060208201905081810360008301526130ae81613072565b9050919050565b7f417661696c61626c6520736c6f7473206d75737420626520677265617465722060008201527f7468616e20310000000000000000000000000000000000000000000000000000602082015250565b6000613111602683612221565b915061311c826130b5565b604082019050919050565b6000602082019050818103600083015261314081613104565b9050919050565b600060608201905061315c600083018661226b565b818103602083015261316e8185612232565b905061317d604083018461226b565b94935050505056fea2646970667358221220bbe80f84d24fc085002a2cd5dfb6bc1067b68beacf0bbc79bbbf54bd07747cc664736f6c634300080a0033",
  "immutableReferences": {},
  "source": "// SPDX-License-Identifier: Apache-2.0\n\npragma solidity ^0.8.3;\n\ncontract lottery {\n\n    address payable public owner;\n    uint[] public createdPools;\n\n    constructor(){\n        owner = payable(msg.sender);\n    }\n\n    struct LotteryPool{\n        string poolName;\n        uint poolId;\n        address[] members;\n        uint availableSlots;\n        uint joiningFee;\n        uint poolAmount;\n        address poolOwner;\n        address winner;\n        bool isActive;\n        bool isExists;\n    }\n\n    struct LotteryPoolMembers{\n      bool isJoined;\n      uint[] joinedPools;\n      uint[] winnedPools;\n    }\n   \n\n    event LogLotteryPoolCreated(address indexed poolOwner, uint poolId, string poolName, uint joiningFee);\n    event LogLotteryPoolJoined(uint poolId, string poolName, uint joiningFee, uint poolAmount, uint availableSlots, address[] members);\n    event LogLotteryPoolWinned(uint poolId, string poolName, uint joiningFee, uint poolAmount, address[] members, address indexed winner);\n\n    mapping(uint => LotteryPool) public lotteryPools;\n    mapping(address => mapping(uint => LotteryPoolMembers)) public lotteryPoolMembers;\n\n\n    function createLotteryPool(string memory _poolName, uint _availableSlots, uint _joiningFee) public payable{\n        require(msg.sender== owner, \"Only owner can create a new lottery pool\");\n        require(_availableSlots > 1, \"Available slots must be greater than 1\");\n        lotteryPools[block.timestamp] = LotteryPool(_poolName, block.timestamp, new address[](0), _availableSlots, _joiningFee, 0, msg.sender,  address(0), true, true);\n        createdPools.push(block.timestamp);\n        emit LogLotteryPoolCreated(msg.sender, block.timestamp, _poolName, _joiningFee);\n    }\n\n    function createMiniLotteryPool(string memory _poolName, uint _availableSlots, uint _joiningFee) public payable{\n        require(msg.sender== owner, \"Only owner can create a new lottery pool\");\n        require(_availableSlots > 1, \"Available slots must be greater than 1\");\n        lotteryPools[block.timestamp] = LotteryPool(_poolName, block.timestamp, new address[](0), _availableSlots, _joiningFee, 0, msg.sender,  address(0), true, true);\n        createdPools.push(block.timestamp);\n        emit LogLotteryPoolCreated(msg.sender, block.timestamp, _poolName, _joiningFee);\n    }\n    function joinMiniLotteryPool(uint _poolId) public payable{\n      require(lotteryPools[_poolId].isExists, \"Pool doesnot exists with given Id\");\n      require(lotteryPools[_poolId].isActive, \"Pool is not active\");\n      require(lotteryPools[_poolId].availableSlots > 0, \"Pool is full\");\n      require(lotteryPools[_poolId].joiningFee == msg.value, \"amount must be equal to joining fee of pool\");\n      require(!lotteryPoolMembers[msg.sender][_poolId].isJoined, \"You are already joined in this pool\");\n\n      lotteryPools[_poolId].members.push(msg.sender);\n      lotteryPools[_poolId].poolAmount += msg.value;\n      lotteryPools[_poolId].availableSlots--;\n      lotteryPoolMembers[msg.sender][_poolId].isJoined = true;\n      lotteryPoolMembers[msg.sender][_poolId].joinedPools.push(_poolId);\n      emit LogLotteryPoolJoined(_poolId, lotteryPools[_poolId].poolName, lotteryPools[_poolId].joiningFee, lotteryPools[_poolId].poolAmount, lotteryPools[_poolId].availableSlots, lotteryPools[_poolId].members);\n    }\n    function joinLotteryPool(uint _poolId) public payable{\n      require(lotteryPools[_poolId].isExists, \"Pool doesnot exists with given Id\");\n      require(lotteryPools[_poolId].isActive, \"Pool is not active\");\n      require(lotteryPools[_poolId].availableSlots > 0, \"Pool is full\");\n      require(lotteryPools[_poolId].joiningFee == msg.value, \"amount must be equal to joining fee of pool\");\n      require(!lotteryPoolMembers[msg.sender][_poolId].isJoined, \"You are already joined in this pool\");\n\n      lotteryPools[_poolId].members.push(msg.sender);\n      lotteryPools[_poolId].poolAmount += msg.value;\n      lotteryPools[_poolId].availableSlots--;\n      lotteryPoolMembers[msg.sender][_poolId].isJoined = true;\n      lotteryPoolMembers[msg.sender][_poolId].joinedPools.push(_poolId);\n      emit LogLotteryPoolJoined(_poolId, lotteryPools[_poolId].poolName, lotteryPools[_poolId].joiningFee, lotteryPools[_poolId].poolAmount, lotteryPools[_poolId].availableSlots, lotteryPools[_poolId].members);\n    }\n\n    function drawWinner(uint _poolId) public payable{\n      require(msg.sender == owner, \"Only pool owner can draw winners\");\n      require(lotteryPools[_poolId].isActive, \"Pool is not active with given Id\");\n      require(lotteryPools[_poolId].availableSlots == 0, \"Pool is not filled up\");\n\n      uint ownerCommission = lotteryPools[_poolId].poolAmount * 20 / 100;\n      uint winningAmount = lotteryPools[_poolId].poolAmount * 80 / 100;\n      owner.transfer(ownerCommission);\n      uint index = uint(keccak256(abi.encodePacked(block.difficulty, block.timestamp,lotteryPools[_poolId].members.length)));\n      uint winnerIndex = index % lotteryPools[_poolId].members.length;\n      address winner = lotteryPools[_poolId].members[winnerIndex];\n      payable(winner).transfer(winningAmount);\n      lotteryPools[_poolId].winner = winner;\n      lotteryPoolMembers[winner][_poolId].winnedPools.push(_poolId);\n      lotteryPools[_poolId].isActive = false;\n      emit LogLotteryPoolWinned(_poolId, lotteryPools[_poolId].poolName, lotteryPools[_poolId].joiningFee, lotteryPools[_poolId].poolAmount, lotteryPools[_poolId].members, lotteryPools[_poolId].winner);\n    }\n\n    function getLotteryPoolById(uint _poolId) public view returns(LotteryPool memory){\n      // require(lotteryPoolMembers[msg.sender][_poolId].isJoined, \"You are not joined in this pool\");\n      return lotteryPools[_poolId];\n    }\n\n    function getLotteryPoolMemeberById(uint _poolId) public view returns(LotteryPoolMembers memory){\n      // require(lotteryPoolMembers[msg.sender][_poolId].isJoined, \"You are not joined in this pool\");\n      return lotteryPoolMembers[msg.sender][_poolId];\n    }\n\n     function getAllcreatedPools() public view returns(uint[] memory) {\n        return createdPools;\n    }\n\n}\n",
  "sourcePath": "/home/bhemeswararaoankireddy/ethereum-practice/luckthoka_latest/contracts/Lottery.sol",
  "compiler": {
    "name": "solc",
    "version": "0.8.10+commit.fc410830.Emscripten.clang"
  },
  "schemaVersion": "3.4.3",
  "updatedAt": "2022-01-03T12:04:56.451Z",
  "devdoc": {
    "kind": "dev",
    "methods": {},
    "version": 1
  },
  "userdoc": {
    "kind": "user",
    "methods": {},
    "version": 1
  }
}